:100000000C9472000C94F5000C9493000C949300E3
:100010000C9493000C9471050C944C050C94930073
:100020000C9493000C9493000C9493000C94930004
:100030000C9493000C9493000C9493000C949300F4
:100040000C9493000C9493000C9493000C949300E4
:100050000C9493000C9493000C9493000C949300D4
:100060000C9493000C9493000C9493000C949300C4
:100070000C9493000C9493000C9493000C949300B4
:100080000C9493000C9493000C9493000C949300A4
:100090000C9493000C9493000C9493000C94930094
:1000A0000C9493000C9493000C9493000C94930084
:1000B0000C9493000C9493000C9493000C94930074
:1000C0000C9493000C9493000C9493000C94930064
:1000D0000C9493000C9493000C9493000C94930054
:1000E0000C94930011241FBECFEFD1E2DEBFCDBF31
:1000F00000E00CBF12E0A0E0B2E0E6E5F7E200E0CD
:100100000BBF02C007900D92AE31B107D9F712E0D4
:10011000AEE1B2E001C01D92A238B107E1F70E9442
:1001200061100C94A9130C940000F894EAE6F0E036
:10013000808182608083EC9A78940895F894EAE64E
:10014000F0E0808188608083ED9A7894089588E05B
:1001500088B9089518B8089587B1876F87B988B1AD
:10016000807888B9089510BA11BA109207011092D8
:1001700008010895EAE7F0E0108210927B0080E227
:1001800080937C0080E880BF86E880830895883073
:1001900018F098E090937B008770806280937C00D9
:1001A000EAE7F0E0808180648083808184FFFDCF76
:1001B00080917900EAE7F0E090819061908310925D
:1001C0007B0008958AB18E6F8AB9589A08950E946B
:1001D000AC000E94E2000895F894E9E6F0E0808126
:1001E00082608083E89A789408951F920F920FB6E8
:1001F0000F9211248F939F93AF93BF9380915402DA
:1002000090915502A0915602B09157020196A11DFE
:10021000B11D8093540290935502A0935602B0935F
:100220005702BF91AF919F918F910F900FBE0F908A
:100230001F901895F8940E94E7000E94EC007894B3
:1002400008955E985F9808955E9A5F9A08955E9803
:100250005F9A08955C9A5D9A08950F931F930E9488
:1002600021011092540210925502109256021092DF
:1002700057028FEF9FE7A4E081509040A040E1F744
:1002800000C000008091540290915502A091560246
:10029000B091570280936A0290936B02A0936C0214
:1002A000B0936D0200916A0210916B0220916C0272
:1002B00030916D02602F712F822F932F1F910F911C
:1002C00008950F931F930E942401109254021092DC
:1002D000550210925602109257028FEF9FE7A4E04A
:1002E00081509040A040E1F700C00000809154028E
:1002F00090915502A0915602B091570280936202EC
:1003000090936302A0936402B0936502009162022D
:10031000109163022091640230916502602F712F69
:10032000822F932F1F910F9108950F931F930E9477
:100330002701109254021092550210925602109208
:1003400057028FEF9FE7A4E081509040A040E1F773
:1003500000C000008091540290915502A091560275
:10036000B09157028093580290935902A0935A0279
:10037000B0935B02009158021091590220915A02E9
:1003800030915B02602F712F822F932F1F910F915D
:100390000895EF92FF920F931F93CF93DF930E94E4
:1003A0002D01DC01CB0180937E0290937F02A0930C
:1003B0008002B09381020E949501DC01CB01809301
:1003C000660290936702A0936802B09369020E944C
:1003D0006101DC01CB0180936E0290936F02A093C8
:1003E0007002B09371020F2EFFECEF2EF7E0FF2E9C
:1003F000F02D82E090E061E070E0F7011995CEE326
:10040000D8E020917E0230917F024091800250918D
:10041000810282E090E061E070E003E010E0FE0124
:1004200019952091660230916702409168025091BF
:10043000690282E090E066E070E0FE01199520918B
:100440006E0230916F02409170025091710282E011
:1004500090E06AE070E0FE01199582E090E06DE0C6
:1004600070E0F701199540917E0250917F026091F2
:100470008002709181028091660290916702A09142
:100480006802B091690284179507A607B707C0F400
:1004900040917E0250917F026091800270918102B2
:1004A00080916E0290916F02A0917002B0917102E2
:1004B00084179507A607B707D8F481E090E01DC020
:1004C00040916602509167026091680270916902E2
:1004D00080916E0290916F02A0917002B0917102B2
:1004E00084179507A607B70730F483E090E005C0AE
:1004F00082E090E002C082E090E0DF91CF911F9116
:100500000F91FF90EF900895CF93DF93EC0182E07D
:1005100090E061E070E00E94CF07C130D10529F47E
:1005200080E092E00E942B080CC0C230D10529F473
:1005300084E092E00E942B0804C08AE092E00E94CE
:100540002B08DF91CF91089581B18F6081B982B17D
:10055000807F82B9EAE0F1E0808188618083EBE00E
:10056000F1E08081886180830895E1E2F1E010820A
:100570008FEF8093250191E090932401109229013F
:100580008093280110922B0180932A0110922D0153
:1005900080932C0189EA809320018BE08083089569
:1005A00092B1907F8F70982B92B9089586E00E9447
:1005B000D002089589E00E94D002089585E00E944B
:1005C000D00208958AE00E94D002089584E00E943B
:1005D000D002089580E00E94D002089582E00E9437
:1005E000D002089581E00E94D002089588E00E9420
:1005F000D00208958093280160932A010895CF9333
:10060000DF93D82FC62F842F0E94C700482F8D2F2D
:1006100090E06C2F70E050E023E030E00E943E0854
:10062000DF91CF9108958F929F92AF92BF92CF9218
:10063000DF92EF92FF92CF93DF936091100270915F
:100640001102882777FD8095982F0E9482126B01F6
:100650007C0180903D0290903E02A0903F02B090BD
:100660004002A50194010E947F110E944F12DC01FB
:10067000CB01EC019093750280937402C701B6011F
:10068000A50194010E947E1120E030E040EA51E48F
:100690000E947F110E944F12AB01BC01CA0150930E
:1006A0007702409376021C161D0624F01092750204
:1006B000109274021816190624F010927702109204
:1006C000760280917402909175028F3F910534F00B
:1006D0008FEF90E090937502809374028091760280
:1006E000909177028F3F910534F08FEF90E09093D7
:1006F0007702809376020E94D60280917402609104
:1007000076020E94FA02DF91CF91FF90EF90DF9086
:10071000CF90BF90AF909F908F90089583E00E94FC
:10072000C7008093530282E00E94C7008093520268
:1007300081E00E94C7008093510281E061E043E0C4
:100740000E94FF0281E065E042E00E94FF0281E03A
:1007500069E041E00E94FF02809153028E32A8F5C9
:1007600090915202913188F4209151022F3268F019
:1007700080E090E0A0E0B0E480934D0290934E02C0
:10078000A0934F02B093500208959F32F0F09091E1
:1007900051029F3208F477C080E090E0A0E8BFE308
:1007A00080934D0290934E02A0934F02B09350025B
:1007B000089580E090E0DC0180934D0290934E021A
:1007C000A0934F02B093500208958F3240F1909160
:1007D00052029F3288F0209151022E3268F480E05C
:1007E00090E0A0E8BFEB80934D0290934E02A0935F
:1007F0004F02B093500208959E3288F490915102B6
:100800009E3268F480E090E0A0E0B0EC80934D026E
:1008100090934E02A0934F02B093500208958E32EF
:10082000C0F5809152028E32A0F5809151028E3235
:1008300080F560914D0270914E0280914F0290912F
:10084000500220E030E040E050EC0E94E3118823A9
:1008500069F480E090E0A0E4B0EC80934D029093C6
:100860004E02A0934F02B0935002089580E090E0B2
:10087000A0E4B0E480934D0290934E02A0934F0207
:10088000B09350020895909151029E3208F09DCF8E
:1008900090CF08954F925F926F927F928F929F9226
:1008A000AF92BF92CF92DF92EF92FF920F931F937E
:1008B000CF93DF93C0904D02D0904E02E0904F0254
:1008C000F0905002C0924902D0924A02E0924B024C
:1008D000F0924C026091450270914602809147026D
:1008E00090914802209135023091360240913702B2
:1008F000509138020E947F11C62FD72F182F092F31
:10090000862F9D2FA12FB02F8093450290934602F2
:10091000A0934702B0934802C701B6012091390263
:1009200030913A0240913B0250913C020E947E116C
:10093000B62EA72E982E892E862F9A2DA92DB82D4A
:100940008093410290934202A0934302B0934402E9
:10095000C701B60120911A0230911B0240911C027E
:1009600050911D020E9432132B013C018C2F9D2FB0
:10097000A12FB02FBC01CD0120911602309117029A
:1009800040911802509119020E9432139B01AC0150
:10099000C301B2010E947F112B013C018B2D9A2DC6
:1009A000A92DB82DBC01CD01209112023091130266
:1009B00040911402509115020E9432139B01AC0128
:1009C000C301B2010E947F11DC01CB0180933D0283
:1009D00090933E02A0933F02B09340028C2F9D2F34
:1009E000A12FB02F8093350290933602A093370247
:1009F000B0933802C0923902D0923A02E0923B02A0
:100A0000F0923C02DF91CF911F910F91FF90EF90F8
:100A1000DF90CF90BF90AF909F908F907F906F901E
:100A20005F904F9008950E948E030E944A040E9496
:100A30001303209153028091510290E0820F911D87
:100A400020915202820F911D843E910564F30E9411
:100A5000A70089E999E5A1E081509040A040E1F725
:100A600000000E94AA000E94EA020895F8940E94E1
:100A700045050E9495000E949E00789408956C9808
:100A8000749A08956D98759A08950E94A4020E9420
:100A90003F050E94420508951F920F920FB60F92D4
:100AA00011248F939F93AF93BF9380912D029091C8
:100AB0002E02A0912F02B09130020196A11DB11D0E
:100AC00080932D0290932E02A0932F02B0933002B8
:100AD000BF91AF919F918F910F900FBE0F901F907C
:100AE00018951F920F920FB60F9211248F939F9318
:100AF000AF93BF938091310290913202A091330263
:100B0000B09134020196A11DB11D809331029093E2
:100B10003202A0933302B0933402BF91AF919F9100
:100B20008F910F900FBE0F901F901895BC0180E021
:100B300090E00E94801225EE30ED4AEA50E40E94D7
:100B4000E7110E945412462F572F682F792F1092C9
:100B50002D0210922E0210922F02109230028091DC
:100B60002D0290912E02A0912F02B09130024817D1
:100B700059076A077B0798F70E94EA020895CF9306
:100B8000DF93EC010E94D602CE010E949605DF9110
:100B9000CF910895CF93DF93EC010E94DA02CE014A
:100BA0000E949605DF91CF9108952F923F924F9228
:100BB0005F926F927F928F929F92AF92BF92CF92ED
:100BC000DF92EF92FF921F93CF93DF93D62FBC015A
:100BD00080E090E00E94801228E431EE42E850E488
:100BE0000E94E7110E9454122B0166247724109270
:100BF0002D0210922E0210922F02109230021092AB
:100C000031021092320210923302109234022224E6
:100C100033242394C1E010E0C0902D02D0902E0226
:100C2000E0902F02F09030028090310290903202DA
:100C3000A0903302B09034028D2F0E94C700910122
:100C4000883310F420E030E09C2FC414D504E6046F
:100C5000F70408F4912F8C2F84149504A604B7048C
:100C600008F4812F892B90E0282B392B2115310591
:100C700099F20E94EA02DF91CF911F91FF90EF90CD
:100C8000DF90CF90BF90AF909F908F907F906F90AC
:100C90005F904F903F902F9008950F931F93CF93A5
:100CA000BC0180E090E00E94801228E431EE42E82E
:100CB00050E40E94E7110E945412DC01CB01A0E035
:100CC000B0E010922D0210922E0210922F0210927C
:100CD00030021092310210923202109233021092BE
:100CE0003402F1E0C0E040912D0250912E0260915B
:100CF0002F02709130020091310210913202209146
:100D0000330230913402EF2F481759076A077B07E7
:100D100008F4EC2FEE2349F44F2F081719072A0780
:100D20003B0708F44C2F4423F1F20E94EA02CF91D2
:100D30001F910F9108950F931F93CF93DF938C0111
:100D4000EB0188E290E00E94BF050E94DE028FEF77
:100D50009FE7ADE081509040A040E1F700C0000067
:100D6000209731F4C80163E070E00E94D50503C00C
:100D7000C8010E944D060E94A7008FEF9FE3A2E0EA
:100D800081509040A040E1F700C000000E94AA00FE
:100D9000DF91CF911F910F9108950F931F93CF93E0
:100DA000DF938C01EB0182E390E00E94BF050E947B
:100DB000E2028FEF9FE7ADE081509040A040E1F765
:100DC00000C00000209731F4C80161E070E00E948B
:100DD000D50503C0C8010E944D060E94A7008FEFF1
:100DE0009FE3A2E081509040A040E1F700C00000E6
:100DF0000E94AA00DF91CF911F910F91089584EB7B
:100E000064EB0E94FA0288E590E061E070E00E94E5
:100E10009B0684E190E00E94BF0584EB64EB0E9496
:100E2000FA0283EC90E061E070E00E94CD0685E07C
:100E300090E00E94BF058FEF9FE7A6E181509040B0
:100E4000A040E1F700C000000E94EA028FEF6FEFC0
:100E50000E94FA020895CF93DF93EC010E94E6020C
:100E6000CE01880F991F63E070E00E94D505DF91E5
:100E7000CF910895CF93DF93EC010E94EE02CE0153
:100E8000880F991F61E070E00E94D505DF91CF9136
:100E90000895CF93DF93EC010E94F202CE01880FF8
:100EA000991F63E070E00E94D505DF91CF9108950E
:100EB000CF93DF93EC010E94F602CE01880F991FB9
:100EC00061E070E00E94D505DF91CF91089586E63C
:100ED0009EE00197F1F700004098419880E388B9BF
:100EE000429AEFEFF7E43197F1F700C00000429823
:100EF000E6E6FEE03197F1F700004098419888B9A6
:100F0000429AEFEFF7E43197F1F700C00000429802
:100F1000E6E6FEE03197F1F700004098419888B985
:100F2000429A8FEF97E40197F1F700C000004298D2
:100F3000E6E6FEE03197F1F700004098419880E244
:100F400088B9429A8FEF97E40197F1F700C000004B
:100F50004298089598B19F7098B998B1282F207F32
:100F6000922B98B940984198429AEFEFF7E4319765
:100F7000F1F700C00000429898B19F7098B998B1FD
:100F80008295807F892B88B940984198429A8FEF4B
:100F900097E40197F1F700C000004298089582306D
:100FA00079F0833018F48130C9F405C0833069F0DA
:100FB0008430A1F40FC0862F81580E94AA0708959B
:100FC000862F81540E94AA070895862F8D560E946D
:100FD000AA070895862F8D520E94AA0708950E949D
:100FE000670786E69EE00197F1F7000088E20E941D
:100FF000AA0781E00E94AA0786E00E94AA078EE065
:101000000E94AA0780E80E94AA07089598B19F70DD
:1010100098B998B1282F207F922B98B9409A41987F
:10102000429AEFEFF7E43197F1F700C000004298E1
:1010300098B19F7098B998B18295807F892B88B9B3
:10104000409A4198429A8FEF97E40197F1F700C0D8
:10105000000042980895CF93DF93EC0188818823A4
:1010600031F021960E94060889918823D9F7DF91F3
:10107000CF91089580E80E94AA0708950F931F93C7
:10108000CF93DF938A01E901882311F0662319F4D5
:101090000E943A0802C00E94CF07C530D10571F402
:1010A000C80160E177E20E949513CB01C09690934E
:1010B0005F0280935E020E94060803C0C430D1051F
:1010C000B9F4C80168EE73E00E949513CB017093E8
:1010D0006102609360026AE070E00E949513C0961E
:1010E00090937D0280937C020E94060881E001C0FB
:1010F00080E0C330D10511F08130B1F4C80164E65D
:1011000070E00E949513CB017093610260936002BE
:101110006AE070E00E949513C096909379028093E4
:1011200078020E94060881E0C230D10511F08130BA
:10113000B1F42AE030E0C801B9010E949513CB0157
:101140007093610260936002B9010E949513C0968A
:1011500090937302809372020E94060881E0C1306E
:10116000D10511F0813061F4C8016AE070E00E949D
:101170009513C09690937B0280937A020E94060892
:10118000C630D1051CF085E40E940608DF91CF919E
:101190001F910F9108953B9A43980895259A2D9A8F
:1011A0000895269A2E9AEAE0F1E080818F6B808381
:1011B000EBE0F1E08081806480830895E1E8F0E075
:1011C00010828CEF8093850081E08093840093E00F
:1011D000909389008FEF8093880090938B00809389
:1011E0008A0090938D0080938C0090938700809369
:1011F00086008BEA80938000109282008CE08083CE
:10120000089510928900682F70E080E090E00E94BD
:1012100080122BE734E14EEE5FE30E94E71120E0FD
:1012200030E04CE052E40E947F110E94541260931F
:101230008800089510928B00682F70E080E090E0A5
:101240000E9480122BE734E14EEE5FE30E94E7112B
:1012500020E030E04CE052E40E947F110E945412E2
:1012600060938A00089580EA80932C020E9401090D
:1012700082E393EBA2E081509040A040E1F700C0F0
:1012800000C080912C02815080932C02853570F72C
:1012900084E60E941A098FEF9FE7A6E181509040F3
:1012A000A040E1F700C0000084E580932C020E947A
:1012B000010989E999E5A1E081509040A040E1F75A
:1012C000000080912C028F5F80932C02823878F38B
:1012D00088E70E941A09089580EA80932C020E94F0
:1012E000010989E999E5A1E081509040A040E1F72A
:1012F000000080912C02815080932C02853578F774
:1013000085E50E941A098FEF9FE7A6E18150904082
:10131000A040E1F700C0000084E580932C020E9409
:10132000010989E999E5A1E081509040A040E1F7E9
:10133000000080912C028F5F80932C02823878F31A
:1013400008950F931F93CF93DF93EC0182E880936E
:101350002C02C238D105A4F40E94010989E999E55B
:10136000A1E081509040A040E1F7000080912C0264
:10137000815080932C02282F30E0C217D30764F3EA
:1013800088E780932C0280910F02803441F01FC0C7
:1013900080912C028D3231F40E94AA0018C088E797
:1013A00009E011E00E941A0986E696E0A2E0815069
:1013B0009040A040E1F780912C02815080932C0254
:1013C000D8018C91807480930F02803409F30E94BD
:1013D000A7008CEC9CECA1E081509040A040E1F78C
:1013E00000C00E94AA008C2FC0932C02C03A90F437
:1013F0000E9401098FEF9FE1A1E081509040A04041
:10140000E1F700C0000080912C028F5F80932C02D6
:10141000803A70F3DF91CF911F910F910895CF9390
:10142000DF9382E880932C020E94010989E999E503
:10143000A1E081509040A040E1F7000080912C0293
:10144000815080932C02873578F78AE580932C02AF
:1014500080910F02803441F041C080912C0287338B
:1014600031F40E94AA0017C08AE5C9E0D1E00E94C9
:101470001A0986E696E0A2E081509040A040E1F78C
:1014800080912C02815080932C02888180748093FB
:101490000F02803411F30E94A7008CEC9CECA1E0B9
:1014A00081509040A040E1F700C00E94AA0086E56C
:1014B00080932C0222C00E9401098FEF9FE1A1E0DE
:1014C00081509040A040E1F700C0000080912C02C4
:1014D0008F5F80932C02803A70F311C00E94A700A6
:1014E0008CEC9CECA1E081509040A040E1F700C062
:1014F0000E94AA0086E580932C0286E5DCCFDF916E
:10150000CF91089580EA80932C020E94010986E61B
:1015100096E2A3E081509040A040E1F780912C0238
:10152000815080932C02843780F788E70E941A0943
:101530008FEF9FE7A4E081509040A040E1F700C00A
:1015400000008CE680932C020E94010989E999E54C
:10155000A1E081509040A040E1F7000080912C0272
:101560008F5F80932C02803A78F30895009789F476
:1015700084EB64EB0E94FA0284E190E00E94CA05C9
:1015800088E590E060E070E00E949B060E941305F1
:10159000089581309105F1F48FEF9FE7A4E0815029
:1015A0009040A040E1F700C0000084EB64EB0E9493
:1015B000FA0282E390E00E94BF0588E590E060E0D7
:1015C00070E00E94CD0688E290E00E94CA050E9469
:1015D000130508958230910539F488E590E060E0C4
:1015E00070E00E94CD0608958330910509F58EE1E3
:1015F00090E00E94BF0584EB64EB0E94FA028AE54A
:1016000090E060E070E00E949B060E94130584E673
:1016100090E060E070E00E949B068AE590E00E9406
:10162000A10988E590E060E070E00E94CD06089591
:1016300084309105E1F582E80E94010988E70E9463
:101640001A098FEF9FEFA8E081509040A040E1F78A
:1016500000C0000084EB64EB0E94FA0288E590E091
:1016600060E070E00E949B0688E290E00E94CA055C
:1016700088E590E060E070E00E949B0687E190E0E2
:101680000E94CA058AE090E00E94BF058FE090E0CA
:101690000E94CA058BE690E00E94A1098FE090E0CD
:1016A0000E94BF0588E790E00E94CA050895853032
:1016B0009105A9F482E390E00E94BF0580E690E0E6
:1016C0000E94A1098CE390E00E94CA0588E590E0A1
:1016D00060E070E00E94CD060E94130508958630F8
:1016E000910511F588E70E941A0986E490E00E94AE
:1016F000BF0585E590E00E94A10980E590E00E9489
:10170000CA0588E590E060E070E00E94CD0682E3C3
:1017100090E00E94CA0588E590E060E070E00E94D9
:10172000CD060E941305089587309105A9F482E340
:1017300090E00E94BF058EE690E00E94A1098CE334
:1017400090E00E94CA0588E590E060E070E00E94A9
:10175000CD060E941305089588309105C9F484EBE5
:1017600064EB0E94FA0284E190E00E94BF0588E5E4
:1017700090E060E070E00E949B068FEF9FE3A2E0A4
:1017800081509040A040E1F700C000000E94130586
:101790000895CF93DF93EC010097E9F484EB64EBB9
:1017A0000E94FA028AE590E060E070E00E94CD06B7
:1017B00084E190E00E94CA050E94820A88E290E0DB
:1017C0000E94CA0588E590E060E070E00E94CD06C6
:1017D0000E9413052AC081309105E9F484EB64EB83
:1017E0000E94FA028DE590E061E070E00E949B06A5
:1017F00084E190E00E94CA050E94820A88E290E09B
:101800000E94CA0588E590E060E070E00E94CD0685
:101810000E94130512C08230910539F488EC68ECFF
:101820000E94FA020E94130513C0C330D10529F4A7
:101830000E9413050E94EA020BC0C430D10541F496
:101840008EEB64EB0E94FA028EEB90E00E94BF05E3
:10185000DF91CF910895CF93DF93009789F48AE5C4
:1018600090E00E94A10989EB90E061E070E00E94A5
:10187000CD068EE190E00E94CA050E94130565C066
:101880008130910509F061C084EB64EB0E94FA029B
:1018900088E590E060E070E00E94CD0689E190E08C
:1018A0000E94CA050E946C0986E990E00E94BF056B
:1018B0008FEF9FE7A6E181509040A040E1F700C084
:1018C0000000C0912402D09125020E94C90126E2A5
:1018D00032E0CC0FDD1FC20FD31F99838883809124
:1018E000240290912502AC014F5F5F4F5093250277
:1018F00040932402880F991F280F391FD9018D9119
:101900009C910E94840284EB64EB0E94FA028CE8B2
:1019100090E00E94CA050E940F0A82E390E00E94B4
:10192000CA058AE590E060E070E00E94CD068EEB8B
:101930006CED0E94FA0282E390E00E94CA050E94C8
:1019400013058FEF6FEF0E94FA02DF91CF91089598
:10195000CF93DF93EC01009709F07EC0611571050C
:1019600009F45AC08EEB90E00E94BF050E94FF066A
:101970000E94C90190932102809320020E94840258
:1019800082E390E00E94CA050E94EA028FEF9FE77F
:10199000A6E181509040A040E1F700C000008AE33A
:1019A00090E061E070E00E949B060E94EA028FEFE7
:1019B0009FE7A6E181509040A040E1F700C0000001
:1019C0008FEF63EC0E94FA0286E990E00E94CA055C
:1019D0000E94EA028FEF9FE7A6E181509040A0406D
:1019E000E1F700C000000E94F60289E999E5ACE148
:1019F00081509040A040E1F7000084EB64EB0E942E
:101A0000FA020E94EA028FEF9FEFA9E58150904011
:101A1000A040E1F700C00000E0912402F09125020F
:101A2000EE0FFF1FEC5DFD4F208131818091200280
:101A3000909121022817390779F40E94A7008FEFAF
:101A40009FEFA8E081509040A040E1F700C0000067
:101A50000E94AA000E943309C130D10569F484E1D3
:101A600090E00E94CA0588E590E060E070E00E9486
:101A70009B060E9413050BC0C230D10541F483E4DC
:101A800090E061E070E00E94CD060E941305DF91B6
:101A9000CF910895CF93DF93EB01009709F0C7C072
:101AA0008DE590E060E070E00E94CD06209709F49B
:101AB0005FC083E790E00E94BF050E94FF068AE0B6
:101AC00090E00E94CA050E94C90190931F02809372
:101AD0001E020E94840282E390E00E94CA050E94D6
:101AE000EA028FEF9FE7A6E181509040A040E1F726
:101AF00000C000008CE390E061E070E00E949B0673
:101B00000E94EA028FEF9FE7A6E181509040A0403B
:101B1000E1F700C000008FEF63EC0E94FA0286E953
:101B200090E00E94CA050E94EA028FEF9FE7A6E1BB
:101B300081509040A040E1F700C000000E94F602F2
:101B40008FEF9FEBA8E181509040A040E1F700C0EB
:101B5000000084EB64EB0E94FA020E94EA028FEF1D
:101B60009FEFA9E581509040A040E1F700C0000040
:101B7000E0912402F0912502EE0FFF1FEC5DFD4F76
:101B80002081318180911E0290911F022817390710
:101B9000E9F48FE090E00E94BF050E94330983E2E0
:101BA00090E00E94CA0586E966E90E94FA0284E68E
:101BB00090E060E070E00E94CD060E94130582E094
:101BC00090E060E070E00E94A80C3CC083E290E0EE
:101BD0000E94CA0584E690E060E070E00E94CD06B5
:101BE00086E966E90E94FA020E9413050E94130525
:101BF0000E94130588E590E060E070E00E949B067B
:101C000084E190E00E94CA050E94330988E590E0D3
:101C100060E070E00E949B060E9413050E9413057D
:101C20008FE590E061E070E00E949B060BC0813080
:101C3000910541F488EC90E060E070E00E94CD06F0
:101C40000E941305DF91CF9108950097D9F484EB9A
:101C500064EB0E94FA0284E690E060E070E00E948B
:101C6000CD0682E390E00E94CA050E94820A84E6C3
:101C700090E060E070E00E949B060E9413050E94C5
:101C8000EA02089581309105C9F484EB64EB0E9467
:101C9000FA0284E690E060E070E00E949B0682E336
:101CA00090E00E94CA050E94820A84E690E060E00B
:101CB00070E00E94CD060E94EA02089582309105EC
:101CC00011F40E94130508950097A1F484EB64EBCE
:101CD0000E94FA0280E890E060E070E00E949B06BB
:101CE00082E390E00E94CA050E94330984EB61EE12
:101CF0000E94FA020895CF93DF93EC01009771F5EB
:101D000082E80E94010988E70E941A098FEF9FEF7D
:101D1000ACE281509040A040E1F700C0000088E0B4
:101D200090E00E94B60A84E090E00E94C90B83E232
:101D300090E00E94CA0580E090E00E942B0C81E0B8
:101D400090E00E94C90B82E090E00E94B60A8CE30A
:101D500090E00E94CA050E941305CAC08130910517
:101D600009F08AC086E90E94010988E70E941A09E1
:101D70008FEF9FEFACE281509040A040E1F700C0B0
:101D800000008EE190E00E94BF0584EB64EB0E94AE
:101D9000FA028AE590E060E070E00E949B0684E130
:101DA00090E00E94CA050E9413050E9413058EE16F
:101DB00090E00E94CA0588E590E00E94A10984EBAA
:101DC00064EB0E94FA028EE190E00E94BF058EEB68
:101DD00090E060E070E00E94CD068EEB61EB0E9427
:101DE000FA028EE190E00E94CA050E9413058AE57E
:101DF00090E060E070E00E949B0684E190E00E9429
:101E0000CA050E94820A89E190E00E94CA0588E51D
:101E100090E060E070E00E949B060E94130582E55E
:101E200090E00E94A10984EB90E060E070E00E94E5
:101E3000CD060E94130588E590E060E070E00E9406
:101E40009B0684E190E00E94CA050E94820A84E118
:101E500090E00E94CA0588E590E060E070E00E9492
:101E6000CD060E94130583E490E061E070E00E94DB
:101E70009B060E941305BCC082309105C9F586E916
:101E80000E9401098FEF9FEFACE281509040A0408B
:101E9000E1F700C0000083E090E00E94B60A0E94D3
:101EA00013050E94130580E090E00E94C90B0E9478
:101EB000130584E690E060E070E00E949B0682E5F6
:101EC00090E00E94A10988E590E060E070E00E9447
:101ED000CD060E9413050E94130580E090E00E9449
:101EE000C90B88E590E061E070E00E94CD06B9C0C2
:101EF000C330D10509F07CC086E90E94010988E75A
:101F00000E941A098FEF9FEFACE281509040A040F1
:101F1000E1F700C0000088E590E060E070E00E941A
:101F2000CD068EE190E00E94CA050E94130584E16F
:101F300090E00E94CA058AE590E00E94A1098EE126
:101F400090E00E94BF0584EB90E060E070E00E94AA
:101F50009B060E9413050E94130588E590E060E04F
:101F600070E00E94CD060E94820A88E590E060E061
:101F700070E00E94CD060E9413050E94130582E5C1
:101F800090E00E94A10980EB90E060E070E00E9488
:101F90009B060E9413050E94130588E590E060E00F
:101FA00070E00E94CD060E94820A88E590E060E021
:101FB00070E00E94CD060E9413050E94130588E57B
:101FC00090E060E070E00E949B068AE590E00E944D
:101FD000A10988E590E060E070E00E949B060E9405
:101FE000130588E590E060E070E00E94CD0639C0FE
:101FF000C430D105B1F588E590E060E070E00E9462
:10200000CD060E94130584EB64EB0E94FA028AE578
:1020100090E060E070E00E94CD0684E190E00E94D4
:10202000CA050E94820A88E590E060E070E00E94A4
:102030009B060E94130582E590E00E94A10980EBB7
:1020400090E060E070E00E949B060E94130581E032
:1020500090E00E94C90B88E590E060E070E00E948B
:10206000CD06DF91CF9108958091260290912702AD
:102070008130910571F4809128029091290282307B
:102080009105C1F483E090E090932B0280932A02A3
:1020900008958230910571F480912802909129026F
:1020A0008330910539F481E090E090932B02809386
:1020B0002A02089582E090E090932B0280932A02F6
:1020C00008950E941A010E9467070E942A010E9437
:1020D00036050E94AC000E94EF070E94CB080E94C8
:1020E000A4020E94B5020E94B3000E94BA000E949E
:1020F000CE080E94D1080E94DE088FEF9FEBA6E079
:1021000081509040A040E1F700C0000084E090E0E2
:102110000E94B60A81E090E00E94B60A82E090E058
:102120000E94C90B81E090E00E942B0C83E090E0BC
:102130000E94C90B8EE190E00E94BF0580E090E014
:102140000E94B60A84EB64EB0E94FA0280E090E001
:1021500061E070E00E94A80C81E090E060E070E037
:102160000E94A80C80E090E061E070E00E944A0DBF
:102170000E94130585E090E00E94B60A82E090E09C
:102180000E94C90B81E090E00E942B0C83E090E05C
:102190000E94C90B8EE190E00E94BF0580E090E0B4
:1021A0000E94B60A80912802909129022091200273
:1021B0003091210282179307E1F40E94A7008FEF6C
:1021C0009FEFA8E081509040A040E1F700C00000E0
:1021D0000E94AA0080E090E060E070E00E94A80CFD
:1021E00080EB90E061E070E00E949B060E94130586
:1021F0002EC020911E0230911F028217930799F47E
:1022000081E090E060E070E00E94A80C80E090E047
:1022100060E070E00E944A0D82E090E060E070E0D3
:102220000E94A80C14C082E090E060E070E00E9480
:10223000A80C82E090E00E94250E80E090E00E94D1
:10224000640E82E090E060E070E00E94A80C86E0FE
:1022500090E00E94B60A0E94341020912002309132
:10226000210282179307A1F40E94A7008FEF9FEF2E
:10227000A8E081509040A040E1F700C000000E941B
:10228000AA0080E090E060E070E00E94A80C24C00A
:102290000E94341020911E0230911F028217930772
:1022A00069F481E090E060E070E00E94A80C80E0BA
:1022B00090E060E070E00E944A0D0EC082E090E085
:1022C00060E070E00E94A80C82E090E00E94250E81
:1022D00080E090E00E94640E0E94A7008FEF9FEFC5
:1022E000A0EEB0E081509040A040B040D9F700C0CF
:1022F00000000E94AA0080E090E008955058BB279B
:10230000AA270ED075C166D130F06BD120F031F420
:102310009F3F11F41EF45BC10EF4E095E7FB51C141
:10232000E92F77D180F3BA176207730784079507FF
:1023300018F071F49EF58FC10EF4E0950B2EBA2FB4
:10234000A02D0B01B90190010C01CA01A0011124BB
:10235000FF27591B99F0593F50F4503E68F11A1667
:10236000F040A22F232F342F4427585FF3CF4695F8
:1023700037952795A795F0405395C9F77EF41F161A
:10238000BA0B620B730B840BBAF09150A1F0FF0FE4
:10239000BB1F661F771F881FC2F70EC0BA0F621FD0
:1023A000731F841F48F4879577956795B795F795C0
:1023B0009E3F08F0B3CF9395880F08F09927EE0F52
:1023C000979587950895D9D008F481E008950CD0A9
:1023D0000FC107D140F0FED030F021F45F3F19F07B
:1023E000F0C0511139C1F3C014D198F39923C9F346
:1023F0005523B1F3951B550BBB27AA27621773070B
:10240000840738F09F5F5F4F220F331F441FAA1FBE
:10241000A9F333D00E2E3AF0E0E830D0915050407E
:10242000E695001CCAF729D0FE2F27D0660F771F2C
:10243000881FBB1F261737074807AB07B0E809F00E
:10244000BB0B802DBF01FF2793585F4F2AF09E3FA3
:10245000510568F0B6C000C15F3FECF3983EDCF375
:10246000869577956795B795F7959F5FC9F7880F1C
:10247000911D9695879597F90895E1E0660F771F6E
:10248000881FBB1F621773078407BA0720F0621BFF
:10249000730B840BBA0BEE1F88F7E095089504D0F8
:1024A0006894B111D9C00895BCD088F09F5790F0BE
:1024B000B92F9927B751A0F0D1F0660F771F881F69
:1024C000991F1AF0BA95C9F712C0B13081F0C3D084
:1024D000B1E00895C0C0672F782F8827B85F39F022
:1024E000B93FCCF3869577956795B395D9F73EF4C8
:1024F00090958095709561957F4F8F4F9F4F089570
:10250000E89409C097FB3EF490958095709561958D
:102510007F4F8F4F9F4F9923A9F0F92F96E9BB2743
:102520009395F695879577956795B795F111F8CFBF
:10253000FAF4BB0F11F460FF1BC06F5F7F4F8F4F2A
:102540009F4F16C0882311F096E911C0772321F020
:102550009EE8872F762F05C0662371F096E8862FB8
:1025600070E060E02AF09A95660F771F881FDAF70F
:10257000880F9695879597F90895990F0008550F3C
:10258000AA0BE0E8FEEF16161706E807F907C0F0F9
:1025900012161306E407F50798F0621B730B840B01
:1025A000950B39F40A2661F0232B242B252B21F4DB
:1025B00008950A2609F4A140A6958FEF811D811D7B
:1025C000089597F99F6780E870E060E008959FEFB5
:1025D00080EC089500240A941616170618060906BA
:1025E000089500240A941216130614060506089589
:1025F000092E0394000C11F4882352F0BB0F40F411
:10260000BF2B11F460FF04C06F5F7F4F8F4F9F4F50
:10261000089557FD9058440F551F59F05F3F71F0D2
:102620004795880F97FB991F61F09F3F79F0879539
:102630000895121613061406551FF2CF4695F1DFC2
:1026400008C0161617061806991FF1CF8695710552
:10265000610508940895E894BB2766277727CB0186
:1026600097F908950BD0C4CFB5DF28F0BADF18F082
:10267000952309F0A6CFABCF1124EECFCADFA0F38C
:10268000959FD1F3950F50E0551F629FF001729F07
:10269000BB27F00DB11D639FAA27F00DB11DAA1F26
:1026A000649F6627B00DA11D661F829F2227B00D73
:1026B000A11D621F739FB00DA11D621F839FA00DFE
:1026C000611D221F749F3327A00D611D231F849F4E
:1026D000600D211D822F762F6A2F11249F575040A5
:1026E0008AF0E1F088234AF0EE0FFF1FBB1F661F40
:1026F000771F881F91505040A9F79E3F510570F0F9
:1027000060CFAACF5F3FECF3983EDCF386957795D8
:102710006795B795F795E7959F5FC1F7FE2B880FF3
:10272000911D9695879597F90895AA1BBB1B51E1BA
:1027300007C0AA1FBB1FA617B70710F0A61BB70B31
:10274000881F991F5A95A9F780959095BC01CD01D6
:062750000895F894FFCF8C
:1027560052656400477265656E00426C756500409F
:0E276600C800CDCCCC3E9A99993E000010419F
:00000001FF
